:1000000001308A006B2900000A108A100A11820749
:10001000C034F934A434B034993492348234F8348E
:10002000803490340034F801F901F701FA013808FE
:10003000031D1D283708031937281030B900031095
:10004000B50DB60DF70DFA0D38087A02031D2A28F2
:1000500037087702031C33283708F702031CFA031A
:100060003808FA020314F80DF90DB90B1F2808001F
:10007000333084008313000803194C280130F80042
:10008000F701F70B4128F80B40284A30F700F70B2F
:1000900047284A28800B3E2808003208B60031085D
:1000A000B5000330B800E830B70013207908AB0082
:1000B0007808AA003208B6003108B500B8016430EB
:1000C000B70013207908B4007808B3007908B600A7
:1000D0007808B500B8010A30B70013207708A800E7
:1000E0007A08A9003208B6003108B500B8010A3014
:1000F000B70013207908B4007808B3007908B60077
:100100007808B500B8010A30B70013207708AC00B2
:100110007A08AD003208B6003108B500B8010A30DF
:10012000B70013207708AE007A08AF002B08FA005A
:100130002A080420B300831688018312330888003C
:10014000831686017F30831286000130B300382089
:1001500083168601FF30831286002D08FA002C08D2
:100160000420B300831688018312330888008316A5
:100170008601BF30831286000130B3003820831619
:100180008601FF30831286002908FA00280804201F
:10019000B300831688018312330888008316860112
:1001A000DF30831286000130B300382083168601C9
:1001B000FF30831286002F08FA002E080420B300B7
:1001C0008316880183123308880083168601EF3076
:1001D000831286000130B300382083168601FF3079
:1001E000831286000800B9010408B8003910831B87
:1001F0003914B21F0329B817381EB80AB109B20959
:10020000B10A0319B20A320EF038B400B407E23E64
:10021000B500323EB70032080F39B507B507B7074A
:10022000E93EB600B607B607310E0F39B607B70775
:10023000B60DB70DB709B70D31080F39B707B40DB3
:100240000730B3000A30B707B603031C2329B607EB
:10025000B503031C2729B507B403031C2B29B407D6
:10026000B303031C2F293330840083130730380570
:10027000381384033805031D4429381A840A381AB0
:1002800044292030F700612984073730040203191C
:1002900038170008F700031D5529381B5529381A4F
:1002A0006529B819552920306029B81F5D292D30DE
:1002B000F70084033813B8136129B81538123030A9
:1002C000F70777080C1E62299900840A381F452910
:1002D0008A110A12BE2903081F39830083160317E7
:1002E0008711193003139900A630980090308312BB
:1002F0009800A701A601FF30B00083160317090874
:10030000C039890003131F129F12003003178800A1
:10031000831287018801890183130313A001A101BE
:1003200083168C16C03083128B040030831686002F
:1003300080308800051183120515301430088316AB
:10034000870083120718BF29A60A0319A70A3014C9
:1003500030088316870083120718BF292708B200C8
:100360002608B1004D2026300C1EB42999000A3011
:1003700084002708B2002608B100F328A72927081F
:0C038000B2002608B1004D209D2963004A
:04400E00E22FFF3F5F
:00000001FF
;PIC16F887
;CRC=8941  CREATED="21-Jun-20 10:10"
