:1000000069EF00F00000000000EF00F000000000C9
:0A0010000000000000000000F3D71C
:0E001C00ACB202D00000FCD72BC0ADFF12002A
:10002A00F250026EF29E0500FF6A0150FE6E005009
:08003A00FD6E02BEF28E120001
:100042001BC0E1FF1CC0E2FF2AC0E6FF19C000F09E
:080052001AC001F0E9DF120001
:10005A00AECF01F0ABA202D0AB98AB8801C000F0E2
:02006A00120082
:10006C000900F5CFE6FF0006FBE10106F9E11200FD
:10007C001C0E196E000E1A6E2B0E1B6E000E1C6ED3
:10008C005A0E1E6E000E1F6E000E206E000E216E9C
:10009C00FF0E266EFF0E276E000E286E000E296EC8
:1000AC00FF0E226EFF0E236E000E246E000E256EC8
:1000BC00AC8A900EAB6E948E949C9EAA03D0AECF5D
:0600CC0000F0FBD712005A
:1000D200156A166A176A186A0F0EC16E070EB46E99
:1000E200816A0F0E8A6E9390939293949396836A89
:1000F2008C6A959295909594959683808382838459
:100102008386846A070E8D6E969096929694B88630
:10011200020EB06E080EAF6EAC84AFDF030E0B6E34
:100122008A0E0C6E550E0D6E0D2EFED70C2EFCD7C0
:100132000B2EFAD7000000008FDF00C01DF0005028
:10014200410A04E18490310E2B6E67DF1D50480A8C
:1001520004E18480360E2B6E60DF1D50420A04E1FA
:100162008492320E2B6E59DF1D504A0A04E18482BA
:10017200370E2B6E52DF1D50430A04E18494330E76
:100182002B6E4BDF1D504B0A04E18484380E2B6E1C
:1001920044DF1D50440A1DE1000E181802E1020E50
:1001A20017180EE1330E0B6EBB0E0C6EDF0E0D6ECA
:1001B2000D2EFED70C2EFCD70B2EFAD70000000016
:1001C20083908392340E2B6E28DF010E176E000E81
:1001D200186E1D50450A1DE1000E181802E1010EAD
:1001E20017180EE1330E0B6EBB0E0C6EDF0E0D6E8A
:1001F2000D2EFED70C2EFCD70B2EFAD700000000D6
:1002020083908382350E2B6E08DF020E176E000E6E
:10021200186E1D50460A07E183808382510E2B6EB1
:10022200FCDE176A186A1D504C0A1DE1000E1618F2
:1002320002E1020E15180EE1330E0B6EBB0E0C6EB0
:10024200DF0E0D6E0D2EFED70C2EFCD70B2EFAD71D
:100252000000000083948396390E2B6EDEDE010EC1
:10026200156E000E166E1D505A0A1DE1000E16186C
:1002720002E1010E15180EE1330E0B6EBB0E0C6E71
:10028200DF0E0D6E0D2EFED70C2EFCD70B2EFAD7DD
:100292000000000083948386300E2B6EBEDE020EB9
:1002A200156E000E166E1D504D0A07E1838483867B
:0E02B200490E2A6EC5DE156A166A3ED7FFD7C2
:020000040030CA
:0E000000000C1F1EFF8381FF0FC00FE00F409A
:00000001FF
